{
  "contractName": "KittyFactory",
  "abi": [
    {
      "constant": false,
      "inputs": [],
      "name": "renounceOwnership",
      "outputs": [],
      "payable": false,
      "stateMutability": "nonpayable",
      "type": "function"
    },
    {
      "constant": true,
      "inputs": [
        {
          "name": "",
          "type": "uint256"
        }
      ],
      "name": "kittyToOwner",
      "outputs": [
        {
          "name": "",
          "type": "address"
        }
      ],
      "payable": false,
      "stateMutability": "view",
      "type": "function"
    },
    {
      "constant": true,
      "inputs": [
        {
          "name": "",
          "type": "uint256"
        }
      ],
      "name": "kitties",
      "outputs": [
        {
          "name": "genes",
          "type": "uint256"
        },
        {
          "name": "birthTime",
          "type": "uint64"
        },
        {
          "name": "cooldownTime",
          "type": "uint64"
        }
      ],
      "payable": false,
      "stateMutability": "view",
      "type": "function"
    },
    {
      "constant": true,
      "inputs": [],
      "name": "owner",
      "outputs": [
        {
          "name": "",
          "type": "address"
        }
      ],
      "payable": false,
      "stateMutability": "view",
      "type": "function"
    },
    {
      "constant": true,
      "inputs": [],
      "name": "isOwner",
      "outputs": [
        {
          "name": "",
          "type": "bool"
        }
      ],
      "payable": false,
      "stateMutability": "view",
      "type": "function"
    },
    {
      "constant": false,
      "inputs": [
        {
          "name": "newOwner",
          "type": "address"
        }
      ],
      "name": "transferOwnership",
      "outputs": [],
      "payable": false,
      "stateMutability": "nonpayable",
      "type": "function"
    },
    {
      "anonymous": false,
      "inputs": [
        {
          "indexed": false,
          "name": "kittyId",
          "type": "uint256"
        },
        {
          "indexed": false,
          "name": "genes",
          "type": "uint256"
        }
      ],
      "name": "NewKitty",
      "type": "event"
    },
    {
      "anonymous": false,
      "inputs": [
        {
          "indexed": true,
          "name": "previousOwner",
          "type": "address"
        },
        {
          "indexed": true,
          "name": "newOwner",
          "type": "address"
        }
      ],
      "name": "OwnershipTransferred",
      "type": "event"
    },
    {
      "constant": true,
      "inputs": [
        {
          "name": "_kittyId",
          "type": "uint256"
        }
      ],
      "name": "getKitty",
      "outputs": [
        {
          "name": "genes",
          "type": "uint256"
        },
        {
          "name": "birthTime",
          "type": "uint64"
        },
        {
          "name": "cooldownTime",
          "type": "uint64"
        }
      ],
      "payable": false,
      "stateMutability": "view",
      "type": "function"
    },
    {
      "constant": false,
      "inputs": [
        {
          "name": "_name",
          "type": "string"
        }
      ],
      "name": "createKittyGen0",
      "outputs": [],
      "payable": true,
      "stateMutability": "payable",
      "type": "function"
    }
  ],
  "bytecode": "0x60806040526010600155600154600a0a600255336000806101000a81548173ffffffffffffffffffffffffffffffffffffffff021916908373ffffffffffffffffffffffffffffffffffffffff1602179055506000809054906101000a900473ffffffffffffffffffffffffffffffffffffffff1673ffffffffffffffffffffffffffffffffffffffff16600073ffffffffffffffffffffffffffffffffffffffff167f8be0079c531659141344cd1fd0a4f28419497f9722a3daafe3b4186f6b6457e060405160405180910390a3610b69806100dd6000396000f30060806040526004361061008e576000357c0100000000000000000000000000000000000000000000000000000000900463ffffffff168063715018a6146100935780638420f94b146100aa57806387c74868146100d85780638cc51eda146101455780638da5cb5b146101bc5780638f32d59b14610213578063e98b7f4d14610242578063f2fde38b146102b9575b600080fd5b34801561009f57600080fd5b506100a86102fc565b005b6100d66004803603810190808035906020019082018035906020019190919293919293905050506103ce565b005b3480156100e457600080fd5b5061010360048036038101908080359060200190929190505050610479565b604051808273ffffffffffffffffffffffffffffffffffffffff1673ffffffffffffffffffffffffffffffffffffffff16815260200191505060405180910390f35b34801561015157600080fd5b50610170600480360381019080803590602001909291905050506104ac565b604051808481526020018367ffffffffffffffff1667ffffffffffffffff1681526020018267ffffffffffffffff1667ffffffffffffffff168152602001935050505060405180910390f35b3480156101c857600080fd5b506101d161050d565b604051808273ffffffffffffffffffffffffffffffffffffffff1673ffffffffffffffffffffffffffffffffffffffff16815260200191505060405180910390f35b34801561021f57600080fd5b50610228610536565b604051808215151515815260200191505060405180910390f35b34801561024e57600080fd5b5061026d6004803603810190808035906020019092919050505061058d565b604051808481526020018367ffffffffffffffff1667ffffffffffffffff1681526020018267ffffffffffffffff1667ffffffffffffffff168152602001935050505060405180910390f35b3480156102c557600080fd5b506102fa600480360381019080803573ffffffffffffffffffffffffffffffffffffffff169060200190929190505050610673565b005b610304610536565b151561030f57600080fd5b600073ffffffffffffffffffffffffffffffffffffffff166000809054906101000a900473ffffffffffffffffffffffffffffffffffffffff1673ffffffffffffffffffffffffffffffffffffffff167f8be0079c531659141344cd1fd0a4f28419497f9722a3daafe3b4186f6b6457e060405160405180910390a360008060006101000a81548173ffffffffffffffffffffffffffffffffffffffff021916908373ffffffffffffffffffffffffffffffffffffffff160217905550565b600080600560003373ffffffffffffffffffffffffffffffffffffffff1673ffffffffffffffffffffffffffffffffffffffff1681526020019081526020016000205414151561041d57600080fd5b61045883838080601f016020809104026020016040519081016040528093929190818152602001838380828437820191505050505050610692565b905060648181151561046657fe5b068103905061047481610780565b505050565b60046020528060005260406000206000915054906101000a900473ffffffffffffffffffffffffffffffffffffffff1681565b6003818154811015156104bb57fe5b90600052602060002090600202016000915090508060000154908060010160009054906101000a900467ffffffffffffffff16908060010160089054906101000a900467ffffffffffffffff16905083565b60008060009054906101000a900473ffffffffffffffffffffffffffffffffffffffff16905090565b60008060009054906101000a900473ffffffffffffffffffffffffffffffffffffffff1673ffffffffffffffffffffffffffffffffffffffff163373ffffffffffffffffffffffffffffffffffffffff1614905090565b6000806000806003805490508510151561060f576040517f08c379a00000000000000000000000000000000000000000000000000000000081526004018080602001828103825260158152602001807f4b6974747920646f6573206e6f742065786973742e000000000000000000000081525060200191505060405180910390fd5b60038581548110151561061e57fe5b9060005260206000209060020201905080600001548160010160009054906101000a900467ffffffffffffffff168260010160089054906101000a900467ffffffffffffffff16935093509350509193909250565b61067b610536565b151561068657600080fd5b61068f816109ef565b50565b600080826040516020018082805190602001908083835b6020831015156106ce57805182526020820191506020810190506020830392506106a9565b6001836020036101000a0380198251168184511680821785525050505050509050019150506040516020818303038152906040526040518082805190602001908083835b6020831015156107375780518252602082019150602081019050602083039250610712565b6001836020036101000a03801982511681845116808217855250505050505090500191505060405180910390206001900490506002548181151561077757fe5b06915050919050565b610788610b07565b60006060604051908101604052808481526020014267ffffffffffffffff168152602001600067ffffffffffffffff1681525091506001600383908060018154018082558091505090600182039060005260206000209060020201600090919290919091506000820151816000015560208201518160010160006101000a81548167ffffffffffffffff021916908367ffffffffffffffff16021790555060408201518160010160086101000a81548167ffffffffffffffff021916908367ffffffffffffffff1602179055505050039050336004600083815260200190815260200160002060006101000a81548173ffffffffffffffffffffffffffffffffffffffff021916908373ffffffffffffffffffffffffffffffffffffffff1602179055506108ff6001600560003373ffffffffffffffffffffffffffffffffffffffff1673ffffffffffffffffffffffffffffffffffffffff16815260200190815260200160002054610ae990919063ffffffff16565b600560003373ffffffffffffffffffffffffffffffffffffffff1673ffffffffffffffffffffffffffffffffffffffff16815260200190815260200160002081905550600660003373ffffffffffffffffffffffffffffffffffffffff1673ffffffffffffffffffffffffffffffffffffffff1681526020019081526020016000208190806001815401808255809150509060018203906000526020600020016000909192909190915055507f729f0085fce3be1c338a43838b7b792065a96c54fc93d779a6f5464ef2ea15df8184604051808381526020018281526020019250505060405180910390a1505050565b600073ffffffffffffffffffffffffffffffffffffffff168173ffffffffffffffffffffffffffffffffffffffff1614151515610a2b57600080fd5b8073ffffffffffffffffffffffffffffffffffffffff166000809054906101000a900473ffffffffffffffffffffffffffffffffffffffff1673ffffffffffffffffffffffffffffffffffffffff167f8be0079c531659141344cd1fd0a4f28419497f9722a3daafe3b4186f6b6457e060405160405180910390a3806000806101000a81548173ffffffffffffffffffffffffffffffffffffffff021916908373ffffffffffffffffffffffffffffffffffffffff16021790555050565b6000808284019050838110151515610afd57fe5b8091505092915050565b60606040519081016040528060008152602001600067ffffffffffffffff168152602001600067ffffffffffffffff16815250905600a165627a7a723058205bafb6768083fcbaec7a2037379df06e4444133b1cd182e59e84d3013df1b7e60029",
  "source": "// SPDX-License-Identifier: MIT\npragma solidity ^0.4.25;\n\nimport \"./erc721.sol\";\nimport \"./safemath.sol\";\nimport \"./ownable.sol\";\n\ncontract KittyFactory is Ownable {\n    using SafeMath for uint256;\n\n    struct Kitty {\n        uint256 genes;\n        uint64 birthTime;\n        uint64 cooldownTime;\n    }\n\n    uint dnaDigits = 16;\n    uint dnaModulus = 10 ** dnaDigits;\n\n    Kitty[] public kitties;\n\n    mapping (uint256 => address) public kittyToOwner;\n    mapping (address => uint256) ownerKittyCount;\n    // Assuming you have this mapping defined somewhere as it's used but not declared\n    mapping (address => uint256[]) ownerToKitties;\n\n    event NewKitty(uint256 kittyId, uint256 genes);\n\n    modifier onlyOwnerOf(uint kittyId) {\n        require(msg.sender == kittyToOwner[kittyId]);\n        _;\n    }\n\n    function _createKitty(uint256 _genes) internal {\n        Kitty memory newKitty = Kitty(_genes, uint64(now), 0);\n        uint256 newKittyId = kitties.push(newKitty) - 1;\n\n        kittyToOwner[newKittyId] = msg.sender;\n        ownerKittyCount[msg.sender] = ownerKittyCount[msg.sender].add(1);\n        ownerToKitties[msg.sender].push(newKittyId); // Add kitty ID to the owner's list of kitties\n\n        emit NewKitty(newKittyId, _genes);\n    }\n\n    function getKitty(uint256 _kittyId) public view returns (uint256 genes, uint64 birthTime, uint64 cooldownTime) {\n        require(_kittyId < kitties.length, \"Kitty does not exist.\");\n        Kitty storage kitty = kitties[_kittyId];\n        return (kitty.genes, kitty.birthTime, kitty.cooldownTime);\n    }\n\n    function _generateRandomDna(string _str) private view returns (uint) {\n        uint rand = uint(keccak256(abi.encodePacked(_str)));\n        return rand % dnaModulus;\n    }\n\n    function createKittyGen0(string _name) external payable  {\n        require(ownerKittyCount[msg.sender] == 0);\n        uint genes = _generateRandomDna(_name);\n        genes = genes - genes % 100;\n        _createKitty(genes);\n    }\n\n}\n",
  "sourcePath": "/Users/venky/Developer/Ad-Blockchain-Midterm/Cryptozombie demo package/contracts/KittyFactory.sol",
  "compiler": {
    "name": "solc",
    "version": "0.4.25+commit.59dbf8f1.Emscripten.clang"
  },
  "schemaVersion": "3.4.16",
  "updatedAt": "2024-03-17T07:32:47.528Z",
  "networkType": "ethereum",
  "devdoc": {
    "methods": {
      "isOwner()": {
        "return": "true if `msg.sender` is the owner of the contract."
      },
      "owner()": {
        "return": "the address of the owner."
      },
      "renounceOwnership()": {
        "details": "Allows the current owner to relinquish control of the contract."
      },
      "transferOwnership(address)": {
        "details": "Allows the current owner to transfer control of the contract to a newOwner.",
        "params": {
          "newOwner": "The address to transfer ownership to."
        }
      }
    }
  },
  "userdoc": {
    "methods": {
      "renounceOwnership()": {
        "notice": "Renouncing to ownership will leave the contract without an owner. It will not be possible to call the functions with the `onlyOwner` modifier anymore."
      }
    }
  }
}