{
  "contractName": "ZombieAttack",
  "abi": [
    {
      "constant": false,
      "inputs": [
        {
          "name": "_zombieId",
          "type": "uint256"
        }
      ],
      "name": "levelUp",
      "outputs": [],
      "payable": true,
      "stateMutability": "payable",
      "type": "function"
    },
    {
      "constant": false,
      "inputs": [
        {
          "name": "_zombieId",
          "type": "uint256"
        },
        {
          "name": "_kittyId",
          "type": "uint256"
        }
      ],
      "name": "feedOnKitty",
      "outputs": [],
      "payable": false,
      "stateMutability": "nonpayable",
      "type": "function"
    },
    {
      "constant": true,
      "inputs": [
        {
          "name": "",
          "type": "uint256"
        }
      ],
      "name": "zombies",
      "outputs": [
        {
          "name": "name",
          "type": "string"
        },
        {
          "name": "dna",
          "type": "uint256"
        },
        {
          "name": "level",
          "type": "uint32"
        },
        {
          "name": "readyTime",
          "type": "uint32"
        },
        {
          "name": "winCount",
          "type": "uint16"
        },
        {
          "name": "lossCount",
          "type": "uint16"
        }
      ],
      "payable": false,
      "stateMutability": "view",
      "type": "function"
    },
    {
      "constant": false,
      "inputs": [],
      "name": "withdraw",
      "outputs": [],
      "payable": false,
      "stateMutability": "nonpayable",
      "type": "function"
    },
    {
      "constant": true,
      "inputs": [
        {
          "name": "_owner",
          "type": "address"
        }
      ],
      "name": "getZombiesByOwner",
      "outputs": [
        {
          "name": "",
          "type": "uint256[]"
        }
      ],
      "payable": false,
      "stateMutability": "view",
      "type": "function"
    },
    {
      "constant": true,
      "inputs": [
        {
          "name": "",
          "type": "uint256"
        }
      ],
      "name": "zombieToOwner",
      "outputs": [
        {
          "name": "",
          "type": "address"
        }
      ],
      "payable": false,
      "stateMutability": "view",
      "type": "function"
    },
    {
      "constant": false,
      "inputs": [
        {
          "name": "_address",
          "type": "address"
        }
      ],
      "name": "setKittyContractAddress",
      "outputs": [],
      "payable": false,
      "stateMutability": "nonpayable",
      "type": "function"
    },
    {
      "constant": false,
      "inputs": [
        {
          "name": "_zombieId",
          "type": "uint256"
        },
        {
          "name": "_newDna",
          "type": "uint256"
        }
      ],
      "name": "changeDna",
      "outputs": [],
      "payable": false,
      "stateMutability": "nonpayable",
      "type": "function"
    },
    {
      "constant": false,
      "inputs": [],
      "name": "renounceOwnership",
      "outputs": [],
      "payable": false,
      "stateMutability": "nonpayable",
      "type": "function"
    },
    {
      "constant": false,
      "inputs": [
        {
          "name": "_name",
          "type": "string"
        }
      ],
      "name": "createRandomZombie",
      "outputs": [],
      "payable": false,
      "stateMutability": "nonpayable",
      "type": "function"
    },
    {
      "constant": true,
      "inputs": [],
      "name": "owner",
      "outputs": [
        {
          "name": "",
          "type": "address"
        }
      ],
      "payable": false,
      "stateMutability": "view",
      "type": "function"
    },
    {
      "constant": true,
      "inputs": [],
      "name": "isOwner",
      "outputs": [
        {
          "name": "",
          "type": "bool"
        }
      ],
      "payable": false,
      "stateMutability": "view",
      "type": "function"
    },
    {
      "constant": false,
      "inputs": [
        {
          "name": "_zombieId",
          "type": "uint256"
        },
        {
          "name": "_newName",
          "type": "string"
        }
      ],
      "name": "changeName",
      "outputs": [],
      "payable": false,
      "stateMutability": "nonpayable",
      "type": "function"
    },
    {
      "constant": false,
      "inputs": [
        {
          "name": "_fee",
          "type": "uint256"
        }
      ],
      "name": "setLevelUpFee",
      "outputs": [],
      "payable": false,
      "stateMutability": "nonpayable",
      "type": "function"
    },
    {
      "constant": false,
      "inputs": [
        {
          "name": "newOwner",
          "type": "address"
        }
      ],
      "name": "transferOwnership",
      "outputs": [],
      "payable": false,
      "stateMutability": "nonpayable",
      "type": "function"
    },
    {
      "anonymous": false,
      "inputs": [
        {
          "indexed": false,
          "name": "zombieId",
          "type": "uint256"
        },
        {
          "indexed": false,
          "name": "name",
          "type": "string"
        },
        {
          "indexed": false,
          "name": "dna",
          "type": "uint256"
        }
      ],
      "name": "NewZombie",
      "type": "event"
    },
    {
      "anonymous": false,
      "inputs": [
        {
          "indexed": true,
          "name": "previousOwner",
          "type": "address"
        },
        {
          "indexed": true,
          "name": "newOwner",
          "type": "address"
        }
      ],
      "name": "OwnershipTransferred",
      "type": "event"
    },
    {
      "constant": false,
      "inputs": [
        {
          "name": "_zombieId",
          "type": "uint256"
        },
        {
          "name": "_targetId",
          "type": "uint256"
        }
      ],
      "name": "attack",
      "outputs": [],
      "payable": false,
      "stateMutability": "nonpayable",
      "type": "function"
    }
  ],
  "bytecode": "0x60806040526010600155600154600a0a6002556201518060035566038d7ea4c6800060085560006009556046600a55336000806101000a81548173ffffffffffffffffffffffffffffffffffffffff021916908373ffffffffffffffffffffffffffffffffffffffff1602179055506000809054906101000a900473ffffffffffffffffffffffffffffffffffffffff1673ffffffffffffffffffffffffffffffffffffffff16600073ffffffffffffffffffffffffffffffffffffffff167f8be0079c531659141344cd1fd0a4f28419497f9722a3daafe3b4186f6b6457e060405160405180910390a3611bc4806100f96000396000f3006080604052600436106100e6576000357c0100000000000000000000000000000000000000000000000000000000900463ffffffff1680630ce90ec2146100eb57806317a7f4cc1461010b5780632052465e146101425780633ccfd60b146102335780634412e1041461024a578063528b7b8f146102e25780635f4623f11461034f5780635faf288014610392578063715018a6146103c95780637bff0a01146103e05780638da5cb5b146104495780638f32d59b146104a0578063c39cbef1146104cf578063ccf670f814610514578063e1fa763814610541578063f2fde38b14610578575b600080fd5b610109600480360381019080803590602001909291905050506105bb565b005b34801561011757600080fd5b506101406004803603810190808035906020019092919080359060200190929190505050610656565b005b34801561014e57600080fd5b5061016d60048036038101908080359060200190929190505050610784565b60405180806020018781526020018663ffffffff1663ffffffff1681526020018563ffffffff1663ffffffff1681526020018461ffff1661ffff1681526020018361ffff1661ffff168152602001828103825288818151815260200191508051906020019080838360005b838110156101f35780820151818401526020810190506101d8565b50505050905090810190601f1680156102205780820380516001836020036101000a031916815260200191505b5097505050505050505060405180910390f35b34801561023f57600080fd5b506102486108a3565b005b34801561025657600080fd5b5061028b600480360381019080803573ffffffffffffffffffffffffffffffffffffffff169060200190929190505050610923565b6040518080602001828103825283818151815260200191508051906020019060200280838360005b838110156102ce5780820151818401526020810190506102b3565b505050509050019250505060405180910390f35b3480156102ee57600080fd5b5061030d60048036038101908080359060200190929190505050610a55565b604051808273ffffffffffffffffffffffffffffffffffffffff1673ffffffffffffffffffffffffffffffffffffffff16815260200191505060405180910390f35b34801561035b57600080fd5b50610390600480360381019080803573ffffffffffffffffffffffffffffffffffffffff169060200190929190505050610a88565b005b34801561039e57600080fd5b506103c76004803603810190808035906020019092919080359060200190929190505050610adf565b005b3480156103d557600080fd5b506103de610bc1565b005b3480156103ec57600080fd5b50610447600480360381019080803590602001908201803590602001908080601f0160208091040260200160405190810160405280939291908181526020018383808284378201915050505050509192919290505050610c93565b005b34801561045557600080fd5b5061045e610d0c565b604051808273ffffffffffffffffffffffffffffffffffffffff1673ffffffffffffffffffffffffffffffffffffffff16815260200191505060405180910390f35b3480156104ac57600080fd5b506104b5610d35565b604051808215151515815260200191505060405180910390f35b3480156104db57600080fd5b5061051260048036038101908080359060200190929190803590602001908201803590602001919091929391929390505050610d8c565b005b34801561052057600080fd5b5061053f60048036038101908080359060200190929190505050610e7a565b005b34801561054d57600080fd5b506105766004803603810190808035906020019092919080359060200190929190505050610e97565b005b34801561058457600080fd5b506105b9600480360381019080803573ffffffffffffffffffffffffffffffffffffffff16906020019092919050505061112a565b005b600854341415156105cb57600080fd5b61061560016004838154811015156105df57fe5b906000526020600020906003020160020160009054906101000a900463ffffffff1663ffffffff1661114990919063ffffffff16565b60048281548110151561062457fe5b906000526020600020906003020160020160006101000a81548163ffffffff021916908363ffffffff16021790555050565b6000600760009054906101000a900473ffffffffffffffffffffffffffffffffffffffff1673ffffffffffffffffffffffffffffffffffffffff1663e98b7f4d836040518263ffffffff167c010000000000000000000000000000000000000000000000000000000002815260040180828152602001915050606060405180830381600087803b1580156106e957600080fd5b505af11580156106fd573d6000803e3d6000fd5b505050506040513d606081101561071357600080fd5b810190808051906020019092919080519060200190929190805190602001909291905050509050508091505061077f83826040805190810160405280600581526020017f6b69747479000000000000000000000000000000000000000000000000000000815250611173565b505050565b60048181548110151561079357fe5b9060005260206000209060030201600091509050806000018054600181600116156101000203166002900480601f01602080910402602001604051908101604052809291908181526020018280546001816001161561010002031660029004801561083f5780601f106108145761010080835404028352916020019161083f565b820191906000526020600020905b81548152906001019060200180831161082257829003601f168201915b5050505050908060010154908060020160009054906101000a900463ffffffff16908060020160049054906101000a900463ffffffff16908060020160089054906101000a900461ffff169080600201600a9054906101000a900461ffff16905086565b60006108ad610d35565b15156108b857600080fd5b6108c0610d0c565b90508073ffffffffffffffffffffffffffffffffffffffff166108fc3073ffffffffffffffffffffffffffffffffffffffff16319081150290604051600060405180830381858888f1935050505015801561091f573d6000803e3d6000fd5b5050565b606080600080600660008673ffffffffffffffffffffffffffffffffffffffff1673ffffffffffffffffffffffffffffffffffffffff168152602001908152602001600020546040519080825280602002602001820160405280156109975781602001602082028038833980820191505090505b50925060009150600090505b600480549050811015610a4a578473ffffffffffffffffffffffffffffffffffffffff166005600083815260200190815260200160002060009054906101000a900473ffffffffffffffffffffffffffffffffffffffff1673ffffffffffffffffffffffffffffffffffffffff161415610a3d57808383815181101515610a2657fe5b906020019060200201818152505081806001019250505b80806001019150506109a3565b829350505050919050565b60056020528060005260406000206000915054906101000a900473ffffffffffffffffffffffffffffffffffffffff1681565b610a90610d35565b1515610a9b57600080fd5b80600760006101000a81548173ffffffffffffffffffffffffffffffffffffffff021916908373ffffffffffffffffffffffffffffffffffffffff16021790555050565b60148281600482815481101515610af257fe5b906000526020600020906003020160020160009054906101000a900463ffffffff1663ffffffff1610151515610b2757600080fd5b836005600082815260200190815260200160002060009054906101000a900473ffffffffffffffffffffffffffffffffffffffff1673ffffffffffffffffffffffffffffffffffffffff163373ffffffffffffffffffffffffffffffffffffffff16141515610b9557600080fd5b83600486815481101515610ba557fe5b9060005260206000209060030201600101819055505050505050565b610bc9610d35565b1515610bd457600080fd5b600073ffffffffffffffffffffffffffffffffffffffff166000809054906101000a900473ffffffffffffffffffffffffffffffffffffffff1673ffffffffffffffffffffffffffffffffffffffff167f8be0079c531659141344cd1fd0a4f28419497f9722a3daafe3b4186f6b6457e060405160405180910390a360008060006101000a81548173ffffffffffffffffffffffffffffffffffffffff021916908373ffffffffffffffffffffffffffffffffffffffff160217905550565b600080600660003373ffffffffffffffffffffffffffffffffffffffff1673ffffffffffffffffffffffffffffffffffffffff16815260200190815260200160002054141515610ce257600080fd5b610ceb82611420565b9050606481811515610cf957fe5b0681039050610d08828261150e565b5050565b60008060009054906101000a900473ffffffffffffffffffffffffffffffffffffffff16905090565b60008060009054906101000a900473ffffffffffffffffffffffffffffffffffffffff1673ffffffffffffffffffffffffffffffffffffffff163373ffffffffffffffffffffffffffffffffffffffff1614905090565b60028381600482815481101515610d9f57fe5b906000526020600020906003020160020160009054906101000a900463ffffffff1663ffffffff1610151515610dd457600080fd5b846005600082815260200190815260200160002060009054906101000a900473ffffffffffffffffffffffffffffffffffffffff1673ffffffffffffffffffffffffffffffffffffffff163373ffffffffffffffffffffffffffffffffffffffff16141515610e4257600080fd5b8484600488815481101515610e5357fe5b90600052602060002090600302016000019190610e71929190611a73565b50505050505050565b610e82610d35565b1515610e8d57600080fd5b8060088190555050565b6000806000846005600082815260200190815260200160002060009054906101000a900473ffffffffffffffffffffffffffffffffffffffff1673ffffffffffffffffffffffffffffffffffffffff163373ffffffffffffffffffffffffffffffffffffffff16141515610f0a57600080fd5b600486815481101515610f1957fe5b90600052602060002090600302019350600485815481101515610f3857fe5b90600052602060002090600302019250610f5260646117e1565b9150600a548211151561108857610f8960018560020160089054906101000a900461ffff1661ffff166118e490919063ffffffff16565b8460020160086101000a81548161ffff021916908361ffff160217905550610fd560018560020160009054906101000a900463ffffffff1663ffffffff1661114990919063ffffffff16565b8460020160006101000a81548163ffffffff021916908363ffffffff160217905550611021600184600201600a9054906101000a900461ffff1661ffff166118e490919063ffffffff16565b83600201600a6101000a81548161ffff021916908361ffff1602179055506110838684600101546040805190810160405280600681526020017f7a6f6d6269650000000000000000000000000000000000000000000000000000815250611173565b611122565b6110b2600185600201600a9054906101000a900461ffff1661ffff166118e490919063ffffffff16565b84600201600a6101000a81548161ffff021916908361ffff1602179055506110fa60018460020160089054906101000a900461ffff1661ffff166118e490919063ffffffff16565b8360020160086101000a81548161ffff021916908361ffff1602179055506111218461190a565b5b505050505050565b611132610d35565b151561113d57600080fd5b61114681611934565b50565b60008082840190508363ffffffff168163ffffffff161015151561116957fe5b8091505092915050565b600080846005600082815260200190815260200160002060009054906101000a900473ffffffffffffffffffffffffffffffffffffffff1673ffffffffffffffffffffffffffffffffffffffff163373ffffffffffffffffffffffffffffffffffffffff161415156111e457600080fd5b6004868154811015156111f357fe5b9060005260206000209060030201925061120c83611a2e565b151561121757600080fd5b6002548581151561122457fe5b06945060028584600101540181151561123957fe5b04915060405160200180807f6b6974747900000000000000000000000000000000000000000000000000000081525060050190506040516020818303038152906040526040518082805190602001908083835b6020831015156112b1578051825260208201915060208101905060208303925061128c565b6001836020036101000a038019825116818451168082178552505050505050905001915050604051809103902060001916846040516020018082805190602001908083835b60208310151561131b57805182526020820191506020810190506020830392506112f6565b6001836020036101000a0380198251168184511680821785525050505050509050019150506040516020818303038152906040526040518082805190602001908083835b602083101515611384578051825260208201915060208101905060208303925061135f565b6001836020036101000a03801982511681845116808217855250505050505090500191505060405180910390206000191614156113d05760636064838115156113c957fe5b0683030191505b61140f6040805190810160405280600681526020017f4e6f4e616d6500000000000000000000000000000000000000000000000000008152508361150e565b6114188361190a565b505050505050565b600080826040516020018082805190602001908083835b60208310151561145c5780518252602082019150602081019050602083039250611437565b6001836020036101000a0380198251168184511680821785525050505050509050019150506040516020818303038152906040526040518082805190602001908083835b6020831015156114c557805182526020820191506020810190506020830392506114a0565b6001836020036101000a03801982511681845116808217855250505050505090500191505060405180910390206001900490506002548181151561150557fe5b06915050919050565b60006001600460c060405190810160405280868152602001858152602001600163ffffffff168152602001600354420163ffffffff168152602001600061ffff168152602001600061ffff168152509080600181540180825580915050906001820390600052602060002090600302016000909192909190915060008201518160000190805190602001906115a4929190611af3565b506020820151816001015560408201518160020160006101000a81548163ffffffff021916908363ffffffff16021790555060608201518160020160046101000a81548163ffffffff021916908363ffffffff16021790555060808201518160020160086101000a81548161ffff021916908361ffff16021790555060a082015181600201600a6101000a81548161ffff021916908361ffff1602179055505050039050336005600083815260200190815260200160002060006101000a81548173ffffffffffffffffffffffffffffffffffffffff021916908373ffffffffffffffffffffffffffffffffffffffff1602179055506116ed6001600660003373ffffffffffffffffffffffffffffffffffffffff1673ffffffffffffffffffffffffffffffffffffffff16815260200190815260200160002054611a5590919063ffffffff16565b600660003373ffffffffffffffffffffffffffffffffffffffff1673ffffffffffffffffffffffffffffffffffffffff168152602001908152602001600020819055507f88f026aacbbecc90c18411df4b1185fd8d9be2470f1962f192bf84a27d0704b78184846040518084815260200180602001838152602001828103825284818151815260200191508051906020019080838360005b838110156117a0578082015181840152602081019050611785565b50505050905090810190601f1680156117cd5780820380516001836020036101000a031916815260200191505b5094505050505060405180910390a1505050565b60006117f96001600954611a5590919063ffffffff16565b600981905550814233600954604051602001808481526020018373ffffffffffffffffffffffffffffffffffffffff1673ffffffffffffffffffffffffffffffffffffffff166c0100000000000000000000000002815260140182815260200193505050506040516020818303038152906040526040518082805190602001908083835b6020831015156118a2578051825260208201915060208101905060208303925061187d565b6001836020036101000a0380198251168184511680821785525050505050509050019150506040518091039020600190048115156118dc57fe5b069050919050565b60008082840190508361ffff168161ffff161015151561190057fe5b8091505092915050565b60035442018160020160046101000a81548163ffffffff021916908363ffffffff16021790555050565b600073ffffffffffffffffffffffffffffffffffffffff168173ffffffffffffffffffffffffffffffffffffffff161415151561197057600080fd5b8073ffffffffffffffffffffffffffffffffffffffff166000809054906101000a900473ffffffffffffffffffffffffffffffffffffffff1673ffffffffffffffffffffffffffffffffffffffff167f8be0079c531659141344cd1fd0a4f28419497f9722a3daafe3b4186f6b6457e060405160405180910390a3806000806101000a81548173ffffffffffffffffffffffffffffffffffffffff021916908373ffffffffffffffffffffffffffffffffffffffff16021790555050565b6000428260020160049054906101000a900463ffffffff1663ffffffff1611159050919050565b6000808284019050838110151515611a6957fe5b8091505092915050565b828054600181600116156101000203166002900490600052602060002090601f016020900481019282601f10611ab457803560ff1916838001178555611ae2565b82800160010185558215611ae2579182015b82811115611ae1578235825591602001919060010190611ac6565b5b509050611aef9190611b73565b5090565b828054600181600116156101000203166002900490600052602060002090601f016020900481019282601f10611b3457805160ff1916838001178555611b62565b82800160010185558215611b62579182015b82811115611b61578251825591602001919060010190611b46565b5b509050611b6f9190611b73565b5090565b611b9591905b80821115611b91576000816000905550600101611b79565b5090565b905600a165627a7a723058200ced55c02d608923a01087d767b3139a22f8ab068ac92a85aabef4e0d7c16f010029",
  "source": "pragma solidity ^0.4.25;\n\nimport \"./zombiehelper.sol\";\n\ncontract ZombieAttack is ZombieHelper {\n  uint randNonce = 0;\n  uint attackVictoryProbability = 70;\n\n  function randMod(uint _modulus) internal returns(uint) {\n    randNonce = randNonce.add(1);\n    return uint(keccak256(abi.encodePacked(now, msg.sender, randNonce))) % _modulus;\n  }\n\n  function attack(uint _zombieId, uint _targetId) external onlyOwnerOf(_zombieId) {\n    Zombie storage myZombie = zombies[_zombieId];\n    Zombie storage enemyZombie = zombies[_targetId];\n    uint rand = randMod(100);\n    if (rand <= attackVictoryProbability) {\n      myZombie.winCount = myZombie.winCount.add(1);\n      myZombie.level = myZombie.level.add(1);\n      enemyZombie.lossCount = enemyZombie.lossCount.add(1);\n      feedAndMultiply(_zombieId, enemyZombie.dna, \"zombie\");\n    } else {\n      myZombie.lossCount = myZombie.lossCount.add(1);\n      enemyZombie.winCount = enemyZombie.winCount.add(1);\n      _triggerCooldown(myZombie);\n    }\n  }\n}\n",
  "sourcePath": "/Users/venky/Developer/Ad-Blockchain-Midterm/Cryptozombie demo package/contracts/zombieattack.sol",
  "compiler": {
    "name": "solc",
    "version": "0.4.25+commit.59dbf8f1.Emscripten.clang"
  },
  "schemaVersion": "3.4.16",
  "updatedAt": "2024-03-17T07:32:47.523Z",
  "networkType": "ethereum",
  "devdoc": {
    "methods": {
      "isOwner()": {
        "return": "true if `msg.sender` is the owner of the contract."
      },
      "owner()": {
        "return": "the address of the owner."
      },
      "renounceOwnership()": {
        "details": "Allows the current owner to relinquish control of the contract."
      },
      "transferOwnership(address)": {
        "details": "Allows the current owner to transfer control of the contract to a newOwner.",
        "params": {
          "newOwner": "The address to transfer ownership to."
        }
      }
    }
  },
  "userdoc": {
    "methods": {
      "renounceOwnership()": {
        "notice": "Renouncing to ownership will leave the contract without an owner. It will not be possible to call the functions with the `onlyOwner` modifier anymore."
      }
    }
  }
}